:100000000C94BF010C94F0010C94F0010C94F001DD
:100010000C94F0010C94F0010C94F0010C94F0019C
:100020000C94F0010C94F0010C94F0010C94F0018C
:100030000C94F0010C94F0010C94F0010C94F0017C
:100040000C94F0010C94F0010C94F0010C94F0016C
:100050000C94F0010C94F0010C94F0010C94A207A4
:100060000C94F0010C94F0010C94F0010C94F0014C
:100070000C94F0010C94F0010C94F0010C94F0013C
:100080000C94F0010C94F0010C94F0010C94F0012C
:100090000C94F0010C94F0010C94F0010C94EC071A
:1000A0000C94F0010C94F0010C94F0010C94F0010C
:1000B0000C94F0010C94F0010C94F0010C94F001FC
:1000C0000C94F0010C94F0010C94F0010C94F001EC
:1000D0000C94F0010C94F0010C94F0010C94F001DC
:1000E0000C94F0010C94E3050C9425020C94590D2A
:1000F0000C9420040C941A020C9455020C94510296
:100100000C9459030C9410020C94F7030C943502D0
:100110000C9439020C9447020C942B020C94190491
:100120000C9422020C9450020C94F6030C9443029B
:100130000C9410090C9463050C944D040C942F023C
:100140000C943D020C9457030C948F030C940604FA
:100150000C9416020C944B020C941E020C9458033F
:1001600000407A10F35A00A0724E18090010A5D46E
:10017000E80000E87648170000E40B54020000CACB
:100180009A3B000000E1F505000080969800000011
:1001900040420F000000A086010000001027000070
:1001A0000000E803000000006400000000000A00F6
:1001B000000000000100000000002C76D888DC67F9
:1001C0004F0823DFC1DFAE59E1B1B796E5E3E45351
:1001D000C63AE651997696E8E6C28426EB898C9B6E
:1001E00062ED407C6FFCEFBC9C9F40F2BAA56FA50E
:1001F000F490055A2AF75C936B6CF9676DC11BFC90
:10020000E0E40D47FEF520E6B500D0ED902E0300AA
:10021000943577050080841E080000204E0A0000F7
:1002200000C80C333333330F986E12831141EF8DB6
:100230002114893BE65516CFFEE6DB18D1844B38F6
:100240001BF77C1D901DA4BBE424203284725E2227
:100250008100C9F124ECA1E53D2700002100240024
:1002600027002A002D0030003300010100000401A6
:1002700007010A0100002200250028002B002E00A3
:100280003100340002010000050108010B010000EB
:1002900020002300260029002C002F00320000013E
:1002A0000000030106010901050505050705080809
:1002B0000808020202020A0A0808040404040101F0
:1002C0000101010101010303030303030303040705
:1002D00007070C0C0C0C0C0C0C0C0202020206069C
:1002E0000606060606060B0B0B0B0B0B0B0B01028F
:1002F0001020200808102040102040800201020138
:1003000008040201010204081020408080402010EF
:100310000804020180040201804020100804020148
:1003200008040201010204081020408001020408B0
:100330001020408000000A0B02090C0D0E08070374
:1003400004010000000000000000000000000000A8
:10035000000000000000000000000000000000009D
:10036000121110000000000000000000000000005A
:10037000000000000000000000001009590D1124C9
:100380001FBECFEFD1E2DEBFCDBF00E00CBF24E047
:10039000A2E2B3E001C01D92AC32B207E1F713E074
:1003A000A0E0B2E0EAE9F7E200E00BBF02C007908C
:1003B0000D92A232B107D9F711E0CEEBD1E000E007
:1003C00006C021970109802FFE010E949D11CD3B9F
:1003D000D10780E00807A9F70E9454090C94BB13C9
:1003E0000C9400008150823108F05AC0E82FF0E0F0
:1003F0008827E250FE4F8F4F0C949D111E0222025F
:10040000100216021A02500225022B022F02350298
:1004100039023D024302470250024B02510255028B
:10042000809180008F778093800008958091800074
:100430008F7DF9CF80918000877FF5CF84B58F774E
:1004400084BD089584B58F7DFBCF8091B0008F77F8
:100450008093B00008958091B0008F7DF9CF809196
:1004600090008F77809390000895809190008F7D09
:10047000F9CF80919000877FF5CF8091A0008F7792
:100480008093A00008958091A0008F7DF9CF809186
:10049000A000877FF5CF809120018F778093200186
:1004A0000895809120018F7DF9CF80912001877F71
:1004B000F5CFCF93DF93282F30E0F901EC5CFC4FB0
:1004C0008491F901E251FD4FD491F901E855FD4FB6
:1004D000C491CC23A1F081110E94F201EC2FF0E035
:1004E000EE0FFF1FE257FD4FA591B491EC91ED2364
:1004F00081E090E009F480E0DF91CF91089580E001
:1005000090E0FACF1F93CF93DF93282F30E0F901CB
:10051000EC5CFC4F8491F901E251FD4FD491F9015B
:10052000E855FD4FC491CC23A9F0162F81110E94EC
:10053000F201EC2FF0E0EE0FFF1FEC58FD4FA591FC
:10054000B4918FB7F894EC91111108C0D095DE23C7
:10055000DC938FBFDF91CF911F910895DE2BF8CFF1
:10056000CF93DF9390E0FC01E251FD4F2491885539
:100570009D4FFC0184918823D1F090E0880F991F52
:10058000FC01E65AFD4FA591B491FC01EC58FD4FDA
:10059000C591D491623071F49FB7F8943C91822F49
:1005A000809583238C93E8812E2B28839FBFDF9136
:1005B000CF9108958FB7F894EC912E2B2C938FBF89
:1005C000F6CF3FB7F8948091E8039091E903A091AA
:1005D000EA03B091EB0326B5A89B05C02F3F19F0A5
:1005E0000196A11DB11D3FBFBA2FA92F982F8827B3
:1005F000BC01CD01620F711D811D911D42E0660F8E
:10060000771F881F991F4A95D1F708958F929F925F
:10061000AF92BF92CF92DF92EF92FF926B017C017B
:100620000E94E1024B015C01C114D104E104F10418
:10063000B9F00E94E102681979098A099B09683EAC
:1006400073408105910580F321E0C21AD108E108C9
:10065000F10888EE880E83E0981EA11CB11CE4CF3F
:10066000FF90EF90DF90CF90BF90AF909F908F90D2
:100670000895CF93DF93D82FC0E061E08FE10E940F
:10068000820262E370E080E090E00E94060360E096
:100690008FE10E94820262E370E080E090E00E94BD
:1006A0000603CF5FDC13E9CFDF91CF910895089562
:1006B0000895AF92BF92CF92DF92EF92FF920F9385
:1006C0001F93CF93DF936C017B018B01040F151FE8
:1006D000EB015E01AE18BF08C017D10759F0699150
:1006E000D601ED91FC910190F081E02DC6011995A4
:1006F000892B79F7C501DF91CF911F910F91FF9061
:10070000EF90DF90CF90BF90AF900895FC014481AF
:1007100055816081718188EF93E00C9459030895AD
:1007200020916303260F3327331F21323105ECF468
:100730002091AC03FC0190E080E0243069F082E07D
:100740000895A09163032191AC014D5B5C4FA40F10
:10075000B52FB11D2C930196861798F380916303F2
:10076000680F6093630380E0089581E0089510921C
:10077000AC0381E08093AB031092860361E084E1D7
:100780000E94820261E085E10E948202E9EBF0E0D2
:1007900080818E7F808380818D7F808388E48093B9
:1007A000B80085E48093BC000895CF93DF9391E077
:1007B000909342038823B9F0C091B800D091BA0059
:1007C0008091BC008A7B8093BC0060E084E10E9441
:1007D000820260E085E10E9482020E94B703D0930A
:1007E000BA00C093B800DF91CF9108950895E091C9
:1007F000DB038091DA03E81730F4F0E0EE5DFC4FA4
:10080000808190E008958FEF9FEF08959091DB0332
:100810008091DA032FEF3FEF981748F4E92FF0E0CB
:10082000EE5DFC4F208130E09F5F9093DB03C901B8
:1008300008958091DA039091DB03891B990B089549
:10084000CF92DF92EF92FF920F931F93CF93DF939C
:100850007C01CB018A012091B203222389F0EB01B4
:100860006B01C40ED51ECC15DD0569F06991D70169
:10087000ED91FC910190F081E02DC7011995F3CF26
:10088000642F0E949003C801DF91CF911F910F91B7
:10089000FF90EF90DF90CF900895CF93DF931F925A
:1008A000CDB7DEB769832091B2032223F9F02091FE
:1008B000D803203258F021E030E0FC01338322835A
:1008C00090E080E00F90DF91CF9108958091D9035F
:1008D000E82FF0E0ED54FC4F998190838F5F809377
:1008E000D9038093D80381E090E0ECCF61E0CE01A2
:1008F00001960E949003F7CFCF92DF92EF92FF9282
:100900000F931F93CF93DF93FC01C48121E02093C9
:10091000B203C093D3031092D9031092D8038385F6
:10092000682B8CEE93E00E944D04D091D803D13215
:1009300008F092C00E94E1026B017C018091AC033F
:10094000811165C082E08093AC0381E08093AB03AA
:100950008FEF8093AA031092A903D093A803A3EB6F
:10096000B3E0E8E8F3E080E0D81385C01092870395
:1009700080918703CC0FC82BC09387038091860397
:10098000813009F07CC0109286030E94E1026B0165
:100990007C01809187038093BB008091AE0390918E
:1009A000AF03A091B003B091B103892B8A2B8B2B9D
:1009B00099F00E94E1020091AE031091AF032091E3
:1009C000B0033091B1036C197D098E099F09061798
:1009D000170728073907E0F18091BC0083FDD9CFC4
:1009E00085EC8093BC000E94E1026B017C01809148
:1009F000AC03823009F445C08091AA038F3F61F1B6
:100A00008091AA03803241F18091AA0325C0809190
:100A1000AE039091AF03A091B003B091B103892BC5
:100A20008A2B8B2B09F48ACF0E94E1020091AE033E
:100A30001091AF032091B0033091B1036C197D097F
:100A40008E099F09061717072807390708F076CF80
:100A50008091AD030E94D5031092D9031092D80360
:100A60001092B203DF91CF911F910F91FF90EF9001
:100A7000DF90CF9008959D9191938F5F75CF85EE14
:100A8000B0CF8091AE039091AF03A091B003B0912D
:100A9000B103892B8A2B8B2B09F4A9CF0E94E10289
:100AA0000091AE031091AF032091B0033091B103D8
:100AB0006C197D098E099F09061717072807390742
:100AC00008F095CFC5CF90E080E008951F93CF93B5
:100AD000DF93182FC2E1D2E0612F89910E94820238
:100AE00082E0C831D807C1F7DF91CF911F910895F7
:100AF0000F931F93CF938C01C62F0E947C046C2F01
:100B00006460C8010E947C046C2F6B7FC8010E9446
:100B10007C0483EC90E00197F1F7CF911F910F9146
:100B200008950F931F93CF93DF938C01D62FC42F7B
:100B3000607F642B0E94780580E1D89FB00111246A
:100B40006C2BC801DF91CF911F910F910C94780508
:100B500040E061E088EF93E00E9491058BE39FE124
:100B60000197F1F70895CF93DF9300D000D01F9243
:100B70001F92CDB7DEB798E0EAE0F2E0DE01119611
:100B800001900D929A95E1F790910004981710F456
:100B90008FEF890F90E0880F991F21E030E02C0F34
:100BA0003D1F820F931FFC016081606840E088EF69
:100BB00093E028960FB6F894DEBF0FBECDBFDF914D
:100BC000CF910C94910541E00E94910581E090E065
:100BD0000895FC0101900020E9F73197AF01481B0F
:100BE000590BBC0188EF93E00C9459030F931F93AA
:100BF000CF93DF93EC0188819981009759F02A8186
:100C00003B812617370730F081E0DF91CF911F91AC
:100C10000F9108958B016F5F7F4F0E94CA1200975A
:100C200059F0998388831B830A832C813D81232B70
:100C300059F7FC011082E8CF80E0E7CFEF92FF92F6
:100C40000F931F93CF93DF936115710541F480E0FB
:100C5000DF91CF911F910F91FF90EF900895411573
:100C60005105B1F07B01EC010C811D81040F151FB2
:100C7000B8010E94F605882351F3288139818C81BF
:100C80009D81B701820F931F0E94B4131D830C83B3
:100C900081E0DECFCF93DF93EC01888199810097CB
:100CA00011F00E944112198218821D821C821B823F
:100CB0001A82DF91CF910895CF93DF93EC0142E048
:100CC00050E06EE472E00E941E06811103C0CE0166
:100CD0000E944A06CE01DF91CF910895CF93DF9312
:100CE000EC01FB0144815581608171810E941E06E7
:100CF000811103C0CE010E944A06CE01DF91CF913F
:100D00000895EF92FF920F931F93CF93DF93EC011F
:100D10007B018A01BA010E94F60581110BC0CE0148
:100D20000E944A06CE01DF91CF911F910F91FF9053
:100D3000EF9008951D830C83B701888199810E94EB
:100D4000B413F0CFEF92FF920F931F93CF93DF93E3
:100D5000CDB7DEB7A1970FB6F894DEBF0FBECDBFFB
:100D60007C01CB01BA01F701118210821382128239
:100D7000158214828E010F5F1F4F22E044E00E9413
:100D8000680D0097C9F0FC0101900020E9F7319748
:100D9000AF01481B590BBC01C7010E948106A196F7
:100DA0000FB6F894DEBF0FBECDBFDF91CF911F917C
:100DB0000F91FF90EF900895C7010E944A06EFCF70
:100DC000FB01DC0111961C921E9213961C921E923E
:100DD000129715961C921E9214978617970749F042
:100DE000608171816115710521F0448155810C94F8
:100DF00081060895FC0111821082138212821582ED
:100E00001482FB0101900020E9F73197AF01461BE6
:100E1000570B0C948106FC0180819181009711F0A1
:100E20000C9441120895CF92DF92EF92FF920F93AC
:100E30001F93CF93DF93CDB7DEB72C970FB6F894FF
:100E4000DEBF0FBECDBF8C017B01FB01248135814C
:100E500084E190E0821B930B96958795D82E66EEE1
:100E600072E0CE0107960E94FA06C12CCD1450F410
:100E700041E050E065EE72E0CE0107960E941E064A
:100E8000C394F4CFBE01695F7F4FCE0101960E94EB
:100E9000E006B701CE0101960E946E06BC01C801B2
:100EA0000E94E006CE0101960E940B07CE01079634
:100EB0000E940B07C8012C960FB6F894DEBF0FBE38
:100EC000CDBFDF91CF911F910F91FF90EF90DF90F9
:100ED000CF90089585ED8093BC008091AE039091F2
:100EE000AF03A091B003B091B1030796A11DB11D4E
:100EF00023E0B695A795979587952A95D1F72091E8
:100F0000BC0024FD03C01092AC0308954091AE03D1
:100F10005091AF036091B0037091B103452B462B04
:100F2000472B69F30097A105B10541F02AE22A9504
:100F3000F1F700C00197A109B109E1CF8091AD039C
:100F40000C94D5031F920F920FB60F9211242F937A
:100F50003F938F939F93AF93BF938091E4039091BE
:100F6000E503A091E603B091E7033091E30323E0AA
:100F7000230F2D3758F50196A11DB11D2093E303D2
:100F80008093E4039093E503A093E603B093E70313
:100F90008091E8039091E903A091EA03B091EB03FB
:100FA0000196A11DB11D8093E8039093E903A093DE
:100FB000EA03B093EB03BF91AF919F918F913F9163
:100FC0002F910F900FBE0F901F90189526E8230FBA
:100FD0000296A11DB11DD2CF1F920F920FB60F9294
:100FE00011240BB60F922F933F934F935F936F9300
:100FF0007F938F939F93AF93BF93EF93FF938091D2
:10100000B900887F803609F44DC008F040C08832AE
:1010100009F4A9C028F5803109F49DC0C8F48823DB
:1010200009F4FBC0883009F496C0FF91EF91BF919D
:10103000AF919F918F917F916F915F914F913F9170
:101040002F910F900BBE0F900FBE0F901F90189511
:10105000883109F488C0803241F78093AA0314C014
:10106000803409F49DC040F48033B9F38833E9F645
:101070008093AA0385ECB0C0803509F485C088351B
:1010800009F496C0883489F60E946A07CECF883961
:1010900009F48CC038F5883729F050F4883611F0FF
:1010A000803719F683E08093AC031092850357C014
:1010B000883809F47BC0803919F0803809F0B5CF41
:1010C00080918503803208F071C0E091850381E052
:1010D0008E0F809385038091BB00F0E0EB59FC4FAD
:1010E00080833DC0803B39F0E0F4803A09F479C058
:1010F000883A09F09ACF84E08093AC03109264039D
:1011000010926303E091D603F091D7031995809173
:10111000630381110FC081E0809363031092430346
:1011200009C0803C09F4A6CF883C09F4A3CF883BD2
:1011300009F07BCFE091640381E08E0F809364031C
:10114000F0E0ED5BFC4F80818093BB0090916403E5
:101150008091630329C0809187038093BB0085EC55
:101160008093BC0062CF9091A9038091A803981747
:1011700058F5E091A90381E08E0F8093A903F0E078
:10118000E857FC4F8081E9CFE091A90381E08E0F01
:101190008093A9038091BB00F0E0E857FC4F808367
:1011A0009091A9038091A8039817C8F285E8D8CF39
:1011B000E091A90381E08E0F8093A9038091BB0089
:1011C000F0E0E857FC4F80838091AB0381115CCF46
:1011D00081E08093860384EA8093BC001092AC0384
:1011E00024CF85EC8093BC001092AC0380918503E2
:1011F000803230F4E0918503F0E0EB59FC4F10822F
:101200006091850370E0E091D403F091D50385E609
:1012100093E019951092850308CF1092AA0334CF5A
:10122000ECEEF3E01382128288EE93E0A0E0B0E0EF
:1012300084839583A683B78384E392E0918380833C
:1012400061E572E084E094E00E94FA066AE572E0EB
:101250008AE094E00E94FA0660E672E080E194E0A1
:101260000E94FA0666E672E086E194E00E94FA06C1
:101270006FE672E08CE194E00E94FA0668E772E0A3
:1012800082E294E00E94FA06E8EFF3E01382128211
:1012900086E492E09183808387E2848384E181877E
:1012A00084E0828713860895CF93DF93CDB7DEB7AE
:1012B0006B970FB6F894DEBF0FBECDBF789484B5A0
:1012C000826084BD84B5816084BD85B5826085BD42
:1012D00085B5816085BD80916E00816080936E00D0
:1012E00010928100809181008260809381008091C2
:1012F0008100816080938100809180008160809373
:1013000080008091B10084608093B1008091B00032
:1013100081608093B0008091910082608093910001
:101320008091910081608093910080919000816014
:10133000809390008091A10082608093A1008091B1
:10134000A10081608093A1008091A00081608093C2
:10135000A000809121018260809321018091210170
:101360008160809321018091200181608093200120
:1013700080917A00846080937A0080917A00826004
:1013800080937A0080917A00816080937A008091C6
:101390007A00806880937A001092C10002E112E026
:1013A00061E0F80181918F010E94B002F2E0083102
:1013B0001F07B1F70AE212E062E0F80181918F01A4
:1013C0000E94B002F2E000331F07B1F71092DB0376
:1013D0001092DA031092D9031092D8030E94B70337
:1013E00087E593E09093D7038093D60388E593E055
:1013F0009093D5038093D4031092FD03809102044F
:10140000823018F098E09093FD038093000462E32B
:1014100070E080E090E00E9406036091030488EF92
:1014200093E00E947C0468EE73E080E090E00E940C
:10143000060360E388EF93E00E9478050BE416E46E
:10144000C8010197F1F760E388EF93E00E94780507
:10145000C8010197F1F760E388EF93E00E947805F7
:1014600083E592E00197F1F760E288EF93E00E9454
:1014700078056091FD03606240E088EF93E00E9490
:10148000910584E08093FE0340E06CE088EF93E0F8
:101490000E9491050E94A80582E08093FF0340E02E
:1014A00066E088EF93E00E94910540E062E088EFFB
:1014B00093E00E9491058BE39FE10197F1F788E0AB
:1014C0008093030460E088EF93E00E947C040E9414
:1014D000A80561E08FE10E94B00262E084E30E940F
:1014E000B00262E08EE10E94B0028E010F5F1F4FDA
:1014F00036E0B32E40E0E42E40E0F42EDD24D39419
:1015000095E0A92E24E0922E83E20E945902892BB5
:1015100009F085C08091E203882309F480C00E940D
:10152000A80581E00E94390381E00E94B3058CE7A1
:1015300092E00E94E90582E00E94B3056FE872E044
:10154000CE010A960E94FA06BE01665F7F4FC8016F
:101550000E941307C8010E948603C8010E940B075E
:10156000CE010A960E940B076CED75E080E090E0DA
:101570000E9406031092E203D0920302D09202026C
:10158000109201020E94A80580910302882309F4A9
:101590001BC281E00E9466058091E10381112CC08D
:1015A0006091FE03862F84608093FE036C6040E0B0
:1015B00088EF93E00E94910581E00E94B3056BE9FA
:1015C00072E0CE010A960E94FA06BE01665F7F4F66
:1015D000C8010E941307C8010E948603C8010E9427
:1015E0000B07CE010A960E940B0783E00E94B30509
:1015F00086EA92E00E94E905C090020282E0C816E5
:1016000009F4F9C08C1518F1E1E0CE1609F456C0C2
:10161000E114F10409F478CF0E94000071CF8EE14B
:101620000E945902892B09F0AFCF8091E20381110A
:10163000ABCFD092E20310920302D0920102D0927B
:1016400002020E94A80581E00E9439039DCFF3E0C9
:10165000CF1609F438C184E0C812DACF80E00E94C6
:1016600066050E94A80583E00E94390381E00E947C
:10167000B3058CEF92E00E94E90583E00E94B30578
:1016800081E193E00E94E90560ED77E080E090E081
:101690000E940603D09202021092E1031092DC0332
:1016A0001092DD031092DE031092DF031092E0032C
:1016B00081E00E9466050E94A805AACF8DE20E94E3
:1016C0005902892B21F41092E00382E011C08BE2D1
:1016D0000E945902892B19F4C092E003F6CF89E2E7
:1016E0000E945902892B09F06CC082E08093E003CC
:1016F0008093020281E00E94390384E30E94590230
:10170000892B09F085CF84E30E945902892BD9F3F4
:101710008091E1038A5F8093E10381E00E943903B5
:101720000E94A80581E00E94B30589EB92E00E9427
:10173000E90582E00E94B3058091E103198A188AC5
:101740001B8A1A8A1D8A1C8A4AE0B80190E00E940E
:10175000860DF80101900020E9F73197AF01401B99
:10176000510BB801CE0140960E94810668EC72E0F0
:10177000CE0146960E94FA06BE01605F7F4FCE0101
:1017800046960E946E06BC01CE010A960E94E006B3
:10179000BE01665F7F4FC8010E941307C8010E9407
:1017A0008603C8010E940B07CE010A960E940B0710
:1017B000CE0146960E940B07CE0140960E940B0771
:1017C00027CF87E20E945902892B21F483E080937E
:1017D000E0037BCF85E20E945902892B19F4909295
:1017E000E00373CF83E20E945902892B09F085CF71
:1017F000A092E0036ACF6091E10370E090E080E0A6
:101800000E9403102B013C01E091E003F0E0EC5D4D
:10181000FD4F608170E090E080E00E9401109B012C
:10182000AC01C301B2010E94FC106093DC03709311
:10183000DD038093DE039093DF030E94A80581E01F
:101840000E94B3058AEC92E00E94E90582E00E94C2
:10185000B3054091DC035091DD036091DE0370918C
:10186000DF03CE0146960E94A206BE016A5E7F4F4C
:10187000CE0140960E94E006CE0140960E945C0692
:10188000BC01CE010A960E94E006BE01665F7F4F52
:10189000C8010E941307C8010E948603C8010E9464
:1018A0000B07CE010A960E940B07CE0140960E94BC
:1018B0000B07CE0146960E940B07809102028F5FB4
:1018C00080930202A5CE0E94A80580E00E94B30585
:1018D0006091E0036B9DB00111246C5F7B4FCE01E2
:1018E0000A960E94E006BE01665F7F4FC8010E9413
:1018F0001307C8010E948603C8010E940B07CE018E
:101900000A960E940B0781E00E94B3054091DC0318
:101910005091DD036091DE037091DF03CE014096AC
:101920000E94A2066CED72E0CE0146960E94FA0675
:10193000BE01605F7F4FCE0146960E946E060E94F8
:101940005C06BC01CE010A960E94E006BE01665FFD
:101950007F4FC8010E941307C8010E948603C80177
:101960000E940B07CE010A960E940B07CE014696F5
:101970000E940B07CE0140960E940B0783E00E9455
:10198000B30587EE92E00E94E905E091E003E150A3
:10199000FF0BEE0FFF1FE85EFD4F60817181072E88
:1019A000000C880B990B0E9403102091DC033091EE
:1019B000DD034091DE035091DF030E943E100E9440
:1019C0006E110E94060379CF8091E203882309F407
:1019D0001FCE809101028130B1F1823009F018CE22
:1019E0008EE10E945902C0900002892B09F05BC071
:1019F0000E94A805C394C092000281E00E943903AE
:101A00006EE571E080E090E00E94060381E00E94B4
:101A1000B305609100026B9DB00111246C5F7B4F98
:101A2000CE010A960E94E006BE01665F7F4FC801A4
:101A30000E941307C8010E948603C8010E940B0779
:101A4000CE010A96BBCE81E00E94B3058CE792E0FE
:101A50000E94E90582E00E94B30562E972E0CE01CE
:101A60000A960E94FA06BE01665F7F4FC8010E9477
:101A70001307C8010E948603C8010E940B07CE010C
:101A80000A960E940B076CED75E080E090E00E94E2
:101A900006031092E1030E94A805809101028F5F66
:101AA00080930102B5CDE6E0CE12B0CF10920002D5
:101AB000ADCFCF93DF93C8E2D4E02697CE010E944A
:101AC0000B0784E0C430D807C1F7DF91CF910895A8
:101AD000EF920F931F93CF93DF93E80134E047FD1C
:101AE00034E1042E000C550B57FF03C0519541956E
:101AF0005109E32E022F242FAE010E94A00DCE012A
:101B0000DF91CF911F910F91EF900895BB27FB01BB
:101B10005527AA27880F991FAA1FA41710F0A41BE6
:101B200083955051B9F7A05DAA3308F0A95DA19340
:101B3000009779F7B111B1931192CB010C94F10F89
:101B40008F929F92AF92BF92CF92DF92EF92FF92CD
:101B50000F931F93CF93DF9300D000D000D0CDB769
:101B6000DEB76A01F22EB02E102FFBE3AF2EA016C7
:101B700008F41BE31F5F012F27E0AE014F5F5F4FAB
:101B80000E94190FBC018981982F9970913009F436
:101B90004EC09BE2E1FC04C09E2D9170E0FC49C068
:101BA0005E2D5071E82FE87083FF55C084E09111DD
:101BB00001C083E0EF2DE81B8F1508F0E0E0D601AF
:101BC0008E2F20E25523C9F1992329F0D6019C9349
:101BD000C60101966C0196012D5F3F4FE2FE33C0B6
:101BE0008EE4D6018C9391E411969C9311971296F2
:101BF0008C93D9018E2F90E281112AC0E20FF32F2E
:101C0000F11D10828EEF9FEF29960FB6F894DEBF7C
:101C10000FBECDBFDF91CF911F910F91FF90EF903D
:101C2000DF90CF90BF90AF909F908F9008959DE2EE
:101C3000B7CF90E2B5CF2D9381508111FCCFCE0E5E
:101C4000D11CE0E0C1CF8EE6D6018C9391E6CCCFDB
:101C50009D938150D1CF482F447082FF3DC084E0D6
:101C6000911101C083E08F1510F4EF2DE81BD60110
:101C70008E2F20E2552309F1992329F0D6019C9358
:101C8000C60101966C0196012D5F3F4FE2FE1BC01D
:101C900089E4D6018C938EE411968C93119786E497
:101CA00012968C93D9018E2F90E2882309F4A6CF47
:101CB0009D938150FACF2D9381508111FCCFCE0E90
:101CC000D11CE0E0D9CF89E6D6018C938EE611963F
:101CD0008C93119786E6E4CF9B0177FF02C030E03A
:101CE00020E0A1E0B0E0911102C0B0E0A0E0F90175
:101CF0003196AE0FBF1F8B2C912CBB2009F461C015
:101D00005401EFEFAE1ABE0AAA0DBB1DFA161B0650
:101D100019F014F04F2D4A1B511188C0E3FC59C033
:101D20007601A42FB0E2A1114FC0C40ED11C99239B
:101D300009F45BC040E0D6011196F60190836D0175
:101D4000552309F448C0012F060F9A81582F50716E
:101D500084FF03C0913309F4015010160CF047C002
:101D6000093008F008E0EEE2FE2E5B01A01AB1088F
:101D700085019194819491082F3F320729F4D6016F
:101D8000FC92F60131966F016217730794F1021706
:101D900013077CF5DB01A21BB30BAA24A394B12C7F
:101DA000AC0EBD1EAA0DBB1D11968C9121503109A0
:101DB000D601119628153905F4F0F60180836D01DE
:101DC000DBCFB12CA12CA0CFF701B1937F01A150A3
:101DD000AACF9111B0CFD601942F50E302C05D93EA
:101DE00091509111FCCFC40ED11C40E0ACCF01E06A
:101DF000BACF80E3DBCF6217730731F4963388F4F0
:101E0000953311F4552369F0F6018083FD01842F89
:101E100090E2811108C0A40FB11D1C9290E080E0F7
:101E2000F3CE81E3F1CF91938150F3CF911183CF22
:101E30008ACF283008F027E03327DA01990F311DC7
:101E400087FD916000966105710539F432602E5F5F
:101E50003D9330E32A95E1F708959F3F30F08038B5
:101E60007105610509F03C5F3C5F3D93913008F0DE
:101E70008068911DDF93CF931F930F93FF92EF9292
:101E8000192F987F9695E92F96959695E90FFF273C
:101E9000E654FE4F99273327EE24FF24A701E701DC
:101EA00005900894079428F4360FE71EF81E491F82
:101EB000511D660F771F881F991F0694A1F7059083
:101EC000079428F4E70EF81E491F561FC11D770F0F
:101ED000881F991F661F0694A1F70590079428F4A0
:101EE000F80E491F561FC71FD11D880F991F661F67
:101EF000771F0694A1F70590079420F4490F561F09
:101F0000C71FD81F990F661F771F881F0694A9F750
:101F100084911095177041F0D695C79557954795C0
:101F2000F794E7941A95C1F7E0E6F1E0689415900C
:101F3000159135916591959105907FE27395E11822
:101F4000F10A430B560BC90BD009C0F7E10CF11E87
:101F5000431F561FC91FD01D7EF4703311F48A959C
:101F6000E6CFE894015030F0080F0AF4002702177A
:101F700008F4202F2395022F7A3328F079E37D93FC
:101F80002A95E9F710C07D932A9589F606949795CE
:101F90006795379517951794E118F10A430B560B7F
:101FA000C90BD00998F023957E9173957A3308F088
:101FB00070E37C932013B8F77E9170617D9330F0CD
:101FC000839571E37D9370E32A95E1F71124EF90F7
:101FD000FF900F911F91CF91DF91992787FD9095E9
:101FE0000895DC01FC01672F71917723E1F73297A7
:101FF00004C07C916D9370836291AE17BF07C8F3E4
:102000000895E89409C097FB3EF4909580957095EB
:1020100061957F4F8F4F9F4F9923A9F0F92F96E934
:10202000BB279395F695879577956795B795F111A9
:10203000F8CFFAF4BB0F11F460FF1BC06F5F7F4F46
:102040008F4F9F4F16C0882311F096E911C0772358
:1020500021F09EE8872F762F05C0662371F096E861
:10206000862F70E060E02AF09A95660F771F881F30
:10207000DAF7880F9695879597F908950E94511081
:102080000C94C2100E94B41038F00E94BB1020F0D3
:10209000952311F00C94AB100C94B11011240C94F6
:1020A000F6100E94D31070F3959FC1F3950F50E086
:1020B000551F629FF001729FBB27F00DB11D639FFA
:1020C000AA27F00DB11DAA1F649F6627B00DA11DA0
:1020D000661F829F2227B00DA11D621F739FB00D46
:1020E000A11D621F839FA00D611D221F749F3327B6
:1020F000A00D611D231F849F600D211D822F762F4F
:102100006A2F11249F5750409AF0F1F088234AF02B
:10211000EE0FFF1FBB1F661F771F881F9150504097
:10212000A9F79E3F510580F00C94AB100C94F6106B
:102130005F3FE4F3983ED4F3869577956795B7951E
:10214000F795E7959F5FC1F7FE2B880F911D969538
:10215000879597F9089597F99F6780E870E060E0A8
:1021600008959FEF80EC089500240A941616170630
:1021700018060906089500240A9412161306140678
:1021800005060895092E0394000C11F4882352F0DB
:10219000BB0F40F4BF2B11F460FF04C06F5F7F4F93
:1021A0008F4F9F4F089557FD9058440F551F59F07A
:1021B0005F3F71F04795880F97FB991F61F09F3F34
:1021C00079F087950895121613061406551FF2CF5D
:1021D0004695F1DF08C0161617061806991FF1CFAD
:1021E00086957105610508940895E894BB276627D4
:1021F0007727CB0197F908950E9410110C94C21013
:102200000E94BB1058F00E94B41040F029F45F3FC8
:1022100029F00C94AB1051110C94F6100C94B110E1
:102220000E94D31068F39923B1F3552391F3951BC2
:10223000550BBB27AA2762177307840738F09F5FE7
:102240005F4F220F331F441FAA1FA9F335D00E2E54
:102250003AF0E0E832D091505040E695001CCAF7C1
:102260002BD0FE2F29D0660F771F881FBB1F261784
:1022700037074807AB07B0E809F0BB0B802DBF015B
:10228000FF2793585F4F3AF09E3F510578F00C942A
:10229000AB100C94F6105F3FE4F3983ED4F38695B0
:1022A00077956795B795F7959F5FC9F7880F911D4B
:1022B0009695879597F90895E1E0660F771F881F37
:1022C000BB1F621773078407BA0720F0621B730BEA
:1022D000840BBA0BEE1F88F7E09508950E94DB107F
:1022E00088F09F5798F0B92F9927B751B0F0E1F0D7
:1022F000660F771F881F991F1AF0BA95C9F714C087
:10230000B13091F00E94F510B1E008950C94F510F1
:10231000672F782F8827B85F39F0B93FCCF38695BF
:1023200077956795B395D9F73EF49095809570951C
:1023300061957F4F8F4F9F4F0895EE0FFF1F881FAE
:102340008BBF0790F691E02D19940F931F93CF93B5
:10235000DF938230910510F482E090E0E0912A044E
:10236000F0912B0430E020E0B0E0A0E0309799F449
:102370002115310509F44AC0281B390B24303105D9
:10238000D8F58A819B816115710589F1FB019383E1
:102390008283FE0111C0408151810281138148175F
:1023A0005907E0F04817590799F4109761F0129611
:1023B0000C93129713961C933296CF01DF91CF9115
:1023C0001F910F91089500932A0410932B04F4CFCA
:1023D0002115310551F04217530738F0A901DB01EF
:1023E0009A01BD01DF01F801C1CFEF01F9CF909350
:1023F0002B0480932A04CDCFFE01E20FF31F8193BB
:1024000091932250310939832883D7CF2091280412
:1024100030912904232B41F42091060230910702C8
:10242000309329042093280420910402309105025E
:102430002115310541F42DB73EB740910802509166
:102440000902241B350BE0912804F0912904E217BE
:10245000F307A0F42E1B3F0B2817390778F0AC01C7
:102460004E5F5F4F2417350748F04E0F5F1F5093A4
:10247000290440932804819391939FCFF0E0E0E0FA
:102480009CCFCF93DF930097E9F0FC013297138242
:102490001282A0912A04B0912B04ED0130E020E0DB
:1024A0001097A1F420813181820F931F209128047D
:1024B000309129042817390709F061C0F0932904E5
:1024C000E0932804DF91CF910895EA01CE17DF074A
:1024D000E8F54A815B819E0141155105B1F7E9019B
:1024E000FB83EA8349915991C40FD51FEC17FD076F
:1024F00061F4808191810296840F951FE90199838F
:102500008883828193819B838A83F0E0E0E0129646
:102510008D919C9113970097B9F52D913C9111974E
:10252000CD010296820F931F209128043091290437
:102530002817390739F6309751F510922B0410926D
:102540002A04B0932904A0932804BCCFD383C28368
:1025500040815181840F951FC817D90761F44E5FE0
:102560005F4F88819981480F591F518340838A8129
:102570009B81938382832115310509F0B0CFF093BD
:102580002B04E0932A049ECFFD01DC01C0CF13820F
:102590001282D7CF4F925F926F927F928F929F92CB
:1025A000AF92BF92CF92DF92EF92FF920F931F9361
:1025B000CF93DF938C01009799F4CB01DF91CF91FA
:1025C0001F910F91FF90EF90DF90CF90BF90AF9051
:1025D0009F908F907F906F905F904F900C94A5117B
:1025E000FC01E60FF71F9C0122503109E217F307A7
:1025F00008F4AEC0D901CD91DC911197C617D70769
:1026000020F1C530D10578F0CE01049786179707E1
:1026100050F0C61BD70B2297C193D1936D937C9337
:10262000CF010E944112C801DF91CF911F910F91FC
:10263000FF90EF90DF90CF90BF90AF909F908F90E2
:102640007F906F905F904F9008955B01AC1ABD0A28
:102650004C018C0E9D1EA0912A04B0912B04512C8C
:10266000412CF12CE12C109731F5809128049091A8
:1026700029048815990509F05CC04616570608F02C
:1026800058C08091040290910502009741F48DB7E3
:102690009EB74091080250910902841B950BE817E0
:1026A000F90708F055C0F0932904E0932804F901D4
:1026B00071836083B8CF8D919C91119712966C9025
:1026C000129713967C901397A815B90559F56C01CC
:1026D00042E0C40ED11CCA14DB0420F1AC014A193B
:1026E0005B09DA011296159780F06282738251833A
:1026F0004083D9016D937C93E114F10471F0D7010B
:102700001396FC93EE9312978ECF22968C0F9D1FFB
:10271000F90191838083F301EFCFF0932B04E093D1
:102720002A0481CF4816590608F42C017D01D301F3
:102730009ACFCB010E94A5117C01009749F0AE0110
:10274000B8010E94AB13C8010E94411287016BCFF0
:1027500010E000E068CFFB01DC0102C001900D92A7
:1027600041505040D8F70895FB01DC0101900D92D3
:102770000020E1F7089511E0CEEBD1E000E006C0C3
:10278000802FFE010E949D112196011DCF3BD10794
:0A27900080E00807A9F7F894FFCFD6
:10279A000101010100002C04800000004000140027
:1027AA0054002C2A282624227017B80B8813B00448
:1027BA00F401BC020A051409030F2D2B292725232E
:1027CA00000000004D0420046305F6031904060402
:1027DA00F70300000000E305590363058F03204C4B
:1027EA0000464142554C4F534F0050494E4F4C0002
:1027FA0053414C564F00535541564954454C00439A
:10280A004C4F52414C45580056454C0020204D4FE4
:10281A00444F2050524F4752414D41444F52004479
:10282A004553414354495641444F004249454E5647
:10283A00454E49444F002020494E475245534520B2
:10284A004352454449544F5300202020202020431E
:10285A0052454449544F53002400202020434F4CF2
:10286A004F51554520454E564153450053555254F4
:10287A0049454E444F200045737065726520756E58
:10288A00206D6F6D656E746F2E2E2E004752414378
:10289A0049415320504F5220434F4D5052415221EB
:1028AA00002020205655454C56412050524F4E5438
:0228BA004F00CD
:00000001FF
